{
  "_format": "hh-sol-artifact-1",
  "contractName": "Cigawrote",
  "sourceName": "contracts/Cigawrote.sol",
  "abi": [
    {
      "inputs": [],
      "stateMutability": "nonpayable",
      "type": "constructor"
    },
    {
      "anonymous": false,
      "inputs": [
        {
          "indexed": true,
          "internalType": "address",
          "name": "owner",
          "type": "address"
        },
        {
          "indexed": true,
          "internalType": "address",
          "name": "approved",
          "type": "address"
        },
        {
          "indexed": true,
          "internalType": "uint256",
          "name": "tokenId",
          "type": "uint256"
        }
      ],
      "name": "Approval",
      "type": "event"
    },
    {
      "anonymous": false,
      "inputs": [
        {
          "indexed": true,
          "internalType": "address",
          "name": "owner",
          "type": "address"
        },
        {
          "indexed": true,
          "internalType": "address",
          "name": "operator",
          "type": "address"
        },
        {
          "indexed": false,
          "internalType": "bool",
          "name": "approved",
          "type": "bool"
        }
      ],
      "name": "ApprovalForAll",
      "type": "event"
    },
    {
      "anonymous": false,
      "inputs": [
        {
          "indexed": true,
          "internalType": "address",
          "name": "previousOwner",
          "type": "address"
        },
        {
          "indexed": true,
          "internalType": "address",
          "name": "newOwner",
          "type": "address"
        }
      ],
      "name": "OwnershipTransferred",
      "type": "event"
    },
    {
      "anonymous": false,
      "inputs": [
        {
          "indexed": false,
          "internalType": "address",
          "name": "account",
          "type": "address"
        }
      ],
      "name": "Paused",
      "type": "event"
    },
    {
      "anonymous": false,
      "inputs": [
        {
          "indexed": true,
          "internalType": "address",
          "name": "from",
          "type": "address"
        },
        {
          "indexed": true,
          "internalType": "address",
          "name": "to",
          "type": "address"
        },
        {
          "indexed": true,
          "internalType": "uint256",
          "name": "tokenId",
          "type": "uint256"
        }
      ],
      "name": "Transfer",
      "type": "event"
    },
    {
      "anonymous": false,
      "inputs": [
        {
          "indexed": false,
          "internalType": "address",
          "name": "account",
          "type": "address"
        }
      ],
      "name": "Unpaused",
      "type": "event"
    },
    {
      "inputs": [
        {
          "internalType": "address",
          "name": "to",
          "type": "address"
        },
        {
          "internalType": "uint256",
          "name": "tokenId",
          "type": "uint256"
        }
      ],
      "name": "approve",
      "outputs": [],
      "stateMutability": "nonpayable",
      "type": "function"
    },
    {
      "inputs": [
        {
          "internalType": "address",
          "name": "owner",
          "type": "address"
        }
      ],
      "name": "balanceOf",
      "outputs": [
        {
          "internalType": "uint256",
          "name": "",
          "type": "uint256"
        }
      ],
      "stateMutability": "view",
      "type": "function"
    },
    {
      "inputs": [
        {
          "internalType": "uint256",
          "name": "tokenId",
          "type": "uint256"
        }
      ],
      "name": "burn",
      "outputs": [],
      "stateMutability": "nonpayable",
      "type": "function"
    },
    {
      "inputs": [
        {
          "internalType": "uint256",
          "name": "tokenId",
          "type": "uint256"
        }
      ],
      "name": "getApproved",
      "outputs": [
        {
          "internalType": "address",
          "name": "",
          "type": "address"
        }
      ],
      "stateMutability": "view",
      "type": "function"
    },
    {
      "inputs": [
        {
          "internalType": "uint256",
          "name": "tokenId",
          "type": "uint256"
        }
      ],
      "name": "getCollection",
      "outputs": [
        {
          "internalType": "string",
          "name": "",
          "type": "string"
        }
      ],
      "stateMutability": "view",
      "type": "function"
    },
    {
      "inputs": [
        {
          "internalType": "uint256",
          "name": "tokenId",
          "type": "uint256"
        }
      ],
      "name": "getLiterature",
      "outputs": [
        {
          "internalType": "string",
          "name": "",
          "type": "string"
        }
      ],
      "stateMutability": "view",
      "type": "function"
    },
    {
      "inputs": [
        {
          "internalType": "uint256",
          "name": "tokenId",
          "type": "uint256"
        }
      ],
      "name": "getParent",
      "outputs": [
        {
          "internalType": "string",
          "name": "",
          "type": "string"
        }
      ],
      "stateMutability": "view",
      "type": "function"
    },
    {
      "inputs": [
        {
          "internalType": "address",
          "name": "owner",
          "type": "address"
        },
        {
          "internalType": "address",
          "name": "operator",
          "type": "address"
        }
      ],
      "name": "isApprovedForAll",
      "outputs": [
        {
          "internalType": "bool",
          "name": "",
          "type": "bool"
        }
      ],
      "stateMutability": "view",
      "type": "function"
    },
    {
      "inputs": [],
      "name": "name",
      "outputs": [
        {
          "internalType": "string",
          "name": "",
          "type": "string"
        }
      ],
      "stateMutability": "view",
      "type": "function"
    },
    {
      "inputs": [],
      "name": "owner",
      "outputs": [
        {
          "internalType": "address",
          "name": "",
          "type": "address"
        }
      ],
      "stateMutability": "view",
      "type": "function"
    },
    {
      "inputs": [
        {
          "internalType": "uint256",
          "name": "tokenId",
          "type": "uint256"
        }
      ],
      "name": "ownerOf",
      "outputs": [
        {
          "internalType": "address",
          "name": "",
          "type": "address"
        }
      ],
      "stateMutability": "view",
      "type": "function"
    },
    {
      "inputs": [],
      "name": "pause",
      "outputs": [],
      "stateMutability": "nonpayable",
      "type": "function"
    },
    {
      "inputs": [],
      "name": "paused",
      "outputs": [
        {
          "internalType": "bool",
          "name": "",
          "type": "bool"
        }
      ],
      "stateMutability": "view",
      "type": "function"
    },
    {
      "inputs": [],
      "name": "renounceOwnership",
      "outputs": [],
      "stateMutability": "nonpayable",
      "type": "function"
    },
    {
      "inputs": [
        {
          "internalType": "address",
          "name": "to",
          "type": "address"
        },
        {
          "internalType": "string",
          "name": "uri",
          "type": "string"
        },
        {
          "internalType": "string",
          "name": "literature",
          "type": "string"
        },
        {
          "internalType": "string",
          "name": "parent",
          "type": "string"
        },
        {
          "internalType": "string",
          "name": "collection",
          "type": "string"
        }
      ],
      "name": "safeMint",
      "outputs": [],
      "stateMutability": "payable",
      "type": "function"
    },
    {
      "inputs": [
        {
          "internalType": "address",
          "name": "from",
          "type": "address"
        },
        {
          "internalType": "address",
          "name": "to",
          "type": "address"
        },
        {
          "internalType": "uint256",
          "name": "tokenId",
          "type": "uint256"
        }
      ],
      "name": "safeTransferFrom",
      "outputs": [],
      "stateMutability": "nonpayable",
      "type": "function"
    },
    {
      "inputs": [
        {
          "internalType": "address",
          "name": "from",
          "type": "address"
        },
        {
          "internalType": "address",
          "name": "to",
          "type": "address"
        },
        {
          "internalType": "uint256",
          "name": "tokenId",
          "type": "uint256"
        },
        {
          "internalType": "bytes",
          "name": "data",
          "type": "bytes"
        }
      ],
      "name": "safeTransferFrom",
      "outputs": [],
      "stateMutability": "nonpayable",
      "type": "function"
    },
    {
      "inputs": [
        {
          "internalType": "address",
          "name": "operator",
          "type": "address"
        },
        {
          "internalType": "bool",
          "name": "approved",
          "type": "bool"
        }
      ],
      "name": "setApprovalForAll",
      "outputs": [],
      "stateMutability": "nonpayable",
      "type": "function"
    },
    {
      "inputs": [
        {
          "internalType": "bytes4",
          "name": "interfaceId",
          "type": "bytes4"
        }
      ],
      "name": "supportsInterface",
      "outputs": [
        {
          "internalType": "bool",
          "name": "",
          "type": "bool"
        }
      ],
      "stateMutability": "view",
      "type": "function"
    },
    {
      "inputs": [],
      "name": "symbol",
      "outputs": [
        {
          "internalType": "string",
          "name": "",
          "type": "string"
        }
      ],
      "stateMutability": "view",
      "type": "function"
    },
    {
      "inputs": [
        {
          "internalType": "uint256",
          "name": "index",
          "type": "uint256"
        }
      ],
      "name": "tokenByIndex",
      "outputs": [
        {
          "internalType": "uint256",
          "name": "",
          "type": "uint256"
        }
      ],
      "stateMutability": "view",
      "type": "function"
    },
    {
      "inputs": [
        {
          "internalType": "address",
          "name": "owner",
          "type": "address"
        },
        {
          "internalType": "uint256",
          "name": "index",
          "type": "uint256"
        }
      ],
      "name": "tokenOfOwnerByIndex",
      "outputs": [
        {
          "internalType": "uint256",
          "name": "",
          "type": "uint256"
        }
      ],
      "stateMutability": "view",
      "type": "function"
    },
    {
      "inputs": [
        {
          "internalType": "uint256",
          "name": "tokenId",
          "type": "uint256"
        }
      ],
      "name": "tokenURI",
      "outputs": [
        {
          "internalType": "string",
          "name": "",
          "type": "string"
        }
      ],
      "stateMutability": "view",
      "type": "function"
    },
    {
      "inputs": [],
      "name": "totalSupply",
      "outputs": [
        {
          "internalType": "uint256",
          "name": "",
          "type": "uint256"
        }
      ],
      "stateMutability": "view",
      "type": "function"
    },
    {
      "inputs": [
        {
          "internalType": "address",
          "name": "from",
          "type": "address"
        },
        {
          "internalType": "address",
          "name": "to",
          "type": "address"
        },
        {
          "internalType": "uint256",
          "name": "tokenId",
          "type": "uint256"
        }
      ],
      "name": "transferFrom",
      "outputs": [],
      "stateMutability": "nonpayable",
      "type": "function"
    },
    {
      "inputs": [
        {
          "internalType": "address",
          "name": "newOwner",
          "type": "address"
        }
      ],
      "name": "transferOwnership",
      "outputs": [],
      "stateMutability": "nonpayable",
      "type": "function"
    },
    {
      "inputs": [],
      "name": "unpause",
      "outputs": [],
      "stateMutability": "nonpayable",
      "type": "function"
    }
  ],
  "bytecode": "0x60806040523480156200001157600080fd5b5060408051808201825260098152684369676177726f746560b81b60208083019182528351808501909452600584526410d1d5d49560da1b9084015281519192916200006091600091620000ee565b50805162000076906001906020840190620000ee565b5050600b805460ff19169055506200008e3362000094565b620001d1565b600b80546001600160a01b03838116610100818102610100600160a81b031985161790945560405193909204169182907f8be0079c531659141344cd1fd0a4f28419497f9722a3daafe3b4186f6b6457e090600090a35050565b828054620000fc9062000194565b90600052602060002090601f0160209004810192826200012057600085556200016b565b82601f106200013b57805160ff19168380011785556200016b565b828001600101855582156200016b579182015b828111156200016b5782518255916020019190600101906200014e565b50620001799291506200017d565b5090565b5b808211156200017957600081556001016200017e565b600181811c90821680620001a957607f821691505b60208210811415620001cb57634e487b7160e01b600052602260045260246000fd5b50919050565b6123a680620001e16000396000f3fe60806040526004361061019c5760003560e01c80635a1f3c28116100ec57806395d89b411161008a578063c87b56dd11610064578063c87b56dd14610473578063e985e9c514610493578063f2e619a7146104dc578063f2fde38b146104fc57600080fd5b806395d89b411461041e578063a22cb46514610433578063b88d4fde1461045357600080fd5b806370a08231116100c657806370a08231146103b1578063715018a6146103d15780638456cb59146103e65780638da5cb5b146103fb57600080fd5b80635a1f3c28146103595780635c975abb146103795780636352211e1461039157600080fd5b8063296c2b3a11610159578063414533de11610133578063414533de146102d957806342842e0e146102f957806342966c68146103195780634f6ccce71461033957600080fd5b8063296c2b3a146102915780632f745c59146102a45780633f4ba83a146102c457600080fd5b806301ffc9a7146101a157806306fdde03146101d6578063081812fc146101f8578063095ea7b31461023057806318160ddd1461025257806323b872dd14610271575b600080fd5b3480156101ad57600080fd5b506101c16101bc366004611de4565b61051c565b60405190151581526020015b60405180910390f35b3480156101e257600080fd5b506101eb61052d565b6040516101cd9190611e59565b34801561020457600080fd5b50610218610213366004611e6c565b6105bf565b6040516001600160a01b0390911681526020016101cd565b34801561023c57600080fd5b5061025061024b366004611ea1565b6105e6565b005b34801561025e57600080fd5b506008545b6040519081526020016101cd565b34801561027d57600080fd5b5061025061028c366004611ecb565b610701565b61025061029f366004611fb3565b610733565b3480156102b057600080fd5b506102636102bf366004611ea1565b61086e565b3480156102d057600080fd5b50610250610904565b3480156102e557600080fd5b506101eb6102f4366004611e6c565b610916565b34801561030557600080fd5b50610250610314366004611ecb565b6109b8565b34801561032557600080fd5b50610250610334366004611e6c565b6109d3565b34801561034557600080fd5b50610263610354366004611e6c565b610a04565b34801561036557600080fd5b506101eb610374366004611e6c565b610a97565b34801561038557600080fd5b50600b5460ff166101c1565b34801561039d57600080fd5b506102186103ac366004611e6c565b610ab4565b3480156103bd57600080fd5b506102636103cc366004612071565b610b14565b3480156103dd57600080fd5b50610250610b9a565b3480156103f257600080fd5b50610250610bac565b34801561040757600080fd5b50600b5461010090046001600160a01b0316610218565b34801561042a57600080fd5b506101eb610bbc565b34801561043f57600080fd5b5061025061044e36600461208c565b610bcb565b34801561045f57600080fd5b5061025061046e3660046120c8565b610bda565b34801561047f57600080fd5b506101eb61048e366004611e6c565b610c12565b34801561049f57600080fd5b506101c16104ae366004612144565b6001600160a01b03918216600090815260056020908152604080832093909416825291909152205460ff1690565b3480156104e857600080fd5b506101eb6104f7366004611e6c565b610c1d565b34801561050857600080fd5b50610250610517366004612071565b610c3a565b600061052782610cb0565b92915050565b60606000805461053c90612177565b80601f016020809104026020016040519081016040528092919081815260200182805461056890612177565b80156105b55780601f1061058a576101008083540402835291602001916105b5565b820191906000526020600020905b81548152906001019060200180831161059857829003601f168201915b5050505050905090565b60006105ca82610cd5565b506000908152600460205260409020546001600160a01b031690565b60006105f182610ab4565b9050806001600160a01b0316836001600160a01b031614156106645760405162461bcd60e51b815260206004820152602160248201527f4552433732313a20617070726f76616c20746f2063757272656e74206f776e656044820152603960f91b60648201526084015b60405180910390fd5b336001600160a01b0382161480610680575061068081336104ae565b6106f25760405162461bcd60e51b815260206004820152603d60248201527f4552433732313a20617070726f76652063616c6c6572206973206e6f7420746f60448201527f6b656e206f776e6572206f7220617070726f76656420666f7220616c6c000000606482015260840161065b565b6106fc8383610d34565b505050565b61070c335b82610da2565b6107285760405162461bcd60e51b815260040161065b906121b2565b6106fc838383610e21565b61073b610f92565b610743610ff2565b6618838370f3400034101561078d5760405162461bcd60e51b815260206004820152601060248201526f4e6f7420656e6f7567682066756e647360801b604482015260640161065b565b612710610799600c5490565b106107d75760405162461bcd60e51b815260206004820152600e60248201526d14db5bdad9590809d95b48185b1b60921b604482015260640161065b565b60006107e2600c5490565b90506107f2600c80546001019055565b6000818152600d60209081526040909120845161081192860190611cff565b506000818152600e60209081526040909120835161083192850190611cff565b506000818152600f60209081526040909120855161085192870190611cff565b5061085c8682611038565b6108668186611052565b505050505050565b600061087983610b14565b82106108db5760405162461bcd60e51b815260206004820152602b60248201527f455243373231456e756d657261626c653a206f776e657220696e646578206f7560448201526a74206f6620626f756e647360a81b606482015260840161065b565b506001600160a01b03919091166000908152600660209081526040808320938352929052205490565b61090c610f92565b6109146110ec565b565b6000818152600d6020526040902080546060919061093390612177565b80601f016020809104026020016040519081016040528092919081815260200182805461095f90612177565b80156109ac5780601f10610981576101008083540402835291602001916109ac565b820191906000526020600020905b81548152906001019060200180831161098f57829003601f168201915b50505050509050919050565b6106fc83838360405180602001604052806000815250610bda565b6109dc33610706565b6109f85760405162461bcd60e51b815260040161065b906121b2565b610a018161113e565b50565b6000610a0f60085490565b8210610a725760405162461bcd60e51b815260206004820152602c60248201527f455243373231456e756d657261626c653a20676c6f62616c20696e646578206f60448201526b7574206f6620626f756e647360a01b606482015260840161065b565b60088281548110610a8557610a856121ff565b90600052602060002001549050919050565b6000818152600e6020526040902080546060919061093390612177565b6000818152600260205260408120546001600160a01b0316806105275760405162461bcd60e51b8152602060048201526018602482015277115490cdcc8c4e881a5b9d985b1a59081d1bdad95b88125160421b604482015260640161065b565b60006001600160a01b038216610b7e5760405162461bcd60e51b815260206004820152602960248201527f4552433732313a2061646472657373207a65726f206973206e6f7420612076616044820152683634b21037bbb732b960b91b606482015260840161065b565b506001600160a01b031660009081526003602052604090205490565b610ba2610f92565b6109146000611147565b610bb4610f92565b6109146111a1565b60606001805461053c90612177565b610bd63383836111de565b5050565b610be43383610da2565b610c005760405162461bcd60e51b815260040161065b906121b2565b610c0c848484846112ad565b50505050565b6060610527826112e0565b6000818152600f6020526040902080546060919061093390612177565b610c42610f92565b6001600160a01b038116610ca75760405162461bcd60e51b815260206004820152602660248201527f4f776e61626c653a206e6577206f776e657220697320746865207a65726f206160448201526564647265737360d01b606482015260840161065b565b610a0181611147565b60006001600160e01b0319821663780e9d6360e01b14806105275750610527826113e9565b6000818152600260205260409020546001600160a01b0316610a015760405162461bcd60e51b8152602060048201526018602482015277115490cdcc8c4e881a5b9d985b1a59081d1bdad95b88125160421b604482015260640161065b565b600081815260046020526040902080546001600160a01b0319166001600160a01b0384169081179091558190610d6982610ab4565b6001600160a01b03167f8c5be1e5ebec7d5bd14f71427d1e84f3dd0314c0f7b2291e5b200ac8c7c3b92560405160405180910390a45050565b600080610dae83610ab4565b9050806001600160a01b0316846001600160a01b03161480610df557506001600160a01b0380821660009081526005602090815260408083209388168352929052205460ff165b80610e195750836001600160a01b0316610e0e846105bf565b6001600160a01b0316145b949350505050565b826001600160a01b0316610e3482610ab4565b6001600160a01b031614610e5a5760405162461bcd60e51b815260040161065b90612215565b6001600160a01b038216610ebc5760405162461bcd60e51b8152602060048201526024808201527f4552433732313a207472616e7366657220746f20746865207a65726f206164646044820152637265737360e01b606482015260840161065b565b610ec98383836001611439565b826001600160a01b0316610edc82610ab4565b6001600160a01b031614610f025760405162461bcd60e51b815260040161065b90612215565b600081815260046020908152604080832080546001600160a01b03199081169091556001600160a01b0387811680865260038552838620805460001901905590871680865283862080546001019055868652600290945282852080549092168417909155905184937fddf252ad1be2c89b69c2b068fc378daa952ba7f163c4a11628f55a4df523b3ef91a4505050565b600b546001600160a01b036101009091041633146109145760405162461bcd60e51b815260206004820181905260248201527f4f776e61626c653a2063616c6c6572206973206e6f7420746865206f776e6572604482015260640161065b565b600b5460ff16156109145760405162461bcd60e51b815260206004820152601060248201526f14185d5cd8589b194e881c185d5cd95960821b604482015260640161065b565b610bd682826040518060200160405280600081525061144d565b6000828152600260205260409020546001600160a01b03166110cd5760405162461bcd60e51b815260206004820152602e60248201527f45524337323155524953746f726167653a2055524920736574206f66206e6f6e60448201526d32bc34b9ba32b73a103a37b5b2b760911b606482015260840161065b565b6000828152600a6020908152604090912082516106fc92840190611cff565b6110f4611480565b600b805460ff191690557f5db9ee0a495bf2e6ff9c91a7834c1ba4fdd244a5e8aa4e537bd38aeae4b073aa335b6040516001600160a01b03909116815260200160405180910390a1565b610a01816114c9565b600b80546001600160a01b03838116610100818102610100600160a81b031985161790945560405193909204169182907f8be0079c531659141344cd1fd0a4f28419497f9722a3daafe3b4186f6b6457e090600090a35050565b6111a9610ff2565b600b805460ff191660011790557f62e78cea01bee320cd4e420270b5ea74000d11b0c9f74754ebdbfc544b05a2586111213390565b816001600160a01b0316836001600160a01b031614156112405760405162461bcd60e51b815260206004820152601960248201527f4552433732313a20617070726f766520746f2063616c6c657200000000000000604482015260640161065b565b6001600160a01b03838116600081815260056020908152604080832094871680845294825291829020805460ff191686151590811790915591519182527f17307eab39ab6107e8899845ad3d59bd9653f200f220920489ca2b5937696c31910160405180910390a3505050565b6112b8848484610e21565b6112c484848484611509565b610c0c5760405162461bcd60e51b815260040161065b9061225a565b60606112eb82610cd5565b6000828152600a60205260408120805461130490612177565b80601f016020809104026020016040519081016040528092919081815260200182805461133090612177565b801561137d5780601f106113525761010080835404028352916020019161137d565b820191906000526020600020905b81548152906001019060200180831161136057829003601f168201915b50505050509050600061139b60408051602081019091526000815290565b90508051600014156113ae575092915050565b8151156113e05780826040516020016113c89291906122ac565b60405160208183030381529060405292505050919050565b610e1984611616565b60006001600160e01b031982166380ac58cd60e01b148061141a57506001600160e01b03198216635b5e139f60e01b145b8061052757506301ffc9a760e01b6001600160e01b0319831614610527565b611441610ff2565b610c0c8484848461168a565b61145783836117be565b6114646000848484611509565b6106fc5760405162461bcd60e51b815260040161065b9061225a565b600b5460ff166109145760405162461bcd60e51b815260206004820152601460248201527314185d5cd8589b194e881b9bdd081c185d5cd95960621b604482015260640161065b565b6114d281611957565b6000818152600a6020526040902080546114eb90612177565b159050610a01576000818152600a60205260408120610a0191611d83565b60006001600160a01b0384163b1561160b57604051630a85bd0160e11b81526001600160a01b0385169063150b7a029061154d9033908990889088906004016122db565b602060405180830381600087803b15801561156757600080fd5b505af1925050508015611597575060408051601f3d908101601f1916820190925261159491810190612318565b60015b6115f1573d8080156115c5576040519150601f19603f3d011682016040523d82523d6000602084013e6115ca565b606091505b5080516115e95760405162461bcd60e51b815260040161065b9061225a565b805181602001fd5b6001600160e01b031916630a85bd0160e11b149050610e19565b506001949350505050565b606061162182610cd5565b600061163860408051602081019091526000815290565b905060008151116116585760405180602001604052806000815250611683565b80611662846119fa565b6040516020016116739291906122ac565b6040516020818303038152906040525b9392505050565b60018111156116f95760405162461bcd60e51b815260206004820152603560248201527f455243373231456e756d657261626c653a20636f6e7365637574697665207472604482015274185b9cd9995c9cc81b9bdd081cdd5c1c1bdc9d1959605a1b606482015260840161065b565b816001600160a01b0385166117555761175081600880546000838152600960205260408120829055600182018355919091527ff3f7a9fe364faab93b216da50a3214154f22a0a2b415b23a84c8169e8b636ee30155565b611778565b836001600160a01b0316856001600160a01b031614611778576117788582611a97565b6001600160a01b0384166117945761178f81611b34565b6117b7565b846001600160a01b0316846001600160a01b0316146117b7576117b78482611be3565b5050505050565b6001600160a01b0382166118145760405162461bcd60e51b815260206004820181905260248201527f4552433732313a206d696e7420746f20746865207a65726f2061646472657373604482015260640161065b565b6000818152600260205260409020546001600160a01b0316156118795760405162461bcd60e51b815260206004820152601c60248201527f4552433732313a20746f6b656e20616c7265616479206d696e74656400000000604482015260640161065b565b611887600083836001611439565b6000818152600260205260409020546001600160a01b0316156118ec5760405162461bcd60e51b815260206004820152601c60248201527f4552433732313a20746f6b656e20616c7265616479206d696e74656400000000604482015260640161065b565b6001600160a01b038216600081815260036020908152604080832080546001019055848352600290915280822080546001600160a01b0319168417905551839291907fddf252ad1be2c89b69c2b068fc378daa952ba7f163c4a11628f55a4df523b3ef908290a45050565b600061196282610ab4565b9050611972816000846001611439565b61197b82610ab4565b600083815260046020908152604080832080546001600160a01b03199081169091556001600160a01b0385168085526003845282852080546000190190558785526002909352818420805490911690555192935084927fddf252ad1be2c89b69c2b068fc378daa952ba7f163c4a11628f55a4df523b3ef908390a45050565b60606000611a0783611c27565b600101905060008167ffffffffffffffff811115611a2757611a27611f07565b6040519080825280601f01601f191660200182016040528015611a51576020820181803683370190505b5090508181016020015b600019016f181899199a1a9b1b9c1cb0b131b232b360811b600a86061a8153600a8504945084611a8a57611a8f565b611a5b565b509392505050565b60006001611aa484610b14565b611aae9190612335565b600083815260076020526040902054909150808214611b01576001600160a01b03841660009081526006602090815260408083208584528252808320548484528184208190558352600790915290208190555b5060009182526007602090815260408084208490556001600160a01b039094168352600681528383209183525290812055565b600854600090611b4690600190612335565b60008381526009602052604081205460088054939450909284908110611b6e57611b6e6121ff565b906000526020600020015490508060088381548110611b8f57611b8f6121ff565b6000918252602080832090910192909255828152600990915260408082208490558582528120556008805480611bc757611bc761235a565b6001900381819060005260206000200160009055905550505050565b6000611bee83610b14565b6001600160a01b039093166000908152600660209081526040808320868452825280832085905593825260079052919091209190915550565b60008072184f03e93ff9f4daa797ed6e38ed64bf6a1f0160401b8310611c665772184f03e93ff9f4daa797ed6e38ed64bf6a1f0160401b830492506040015b6d04ee2d6d415b85acef81000000008310611c92576d04ee2d6d415b85acef8100000000830492506020015b662386f26fc100008310611cb057662386f26fc10000830492506010015b6305f5e1008310611cc8576305f5e100830492506008015b6127108310611cdc57612710830492506004015b60648310611cee576064830492506002015b600a83106105275760010192915050565b828054611d0b90612177565b90600052602060002090601f016020900481019282611d2d5760008555611d73565b82601f10611d4657805160ff1916838001178555611d73565b82800160010185558215611d73579182015b82811115611d73578251825591602001919060010190611d58565b50611d7f929150611db9565b5090565b508054611d8f90612177565b6000825580601f10611d9f575050565b601f016020900490600052602060002090810190610a0191905b5b80821115611d7f5760008155600101611dba565b6001600160e01b031981168114610a0157600080fd5b600060208284031215611df657600080fd5b813561168381611dce565b60005b83811015611e1c578181015183820152602001611e04565b83811115610c0c5750506000910152565b60008151808452611e45816020860160208601611e01565b601f01601f19169290920160200192915050565b6020815260006116836020830184611e2d565b600060208284031215611e7e57600080fd5b5035919050565b80356001600160a01b0381168114611e9c57600080fd5b919050565b60008060408385031215611eb457600080fd5b611ebd83611e85565b946020939093013593505050565b600080600060608486031215611ee057600080fd5b611ee984611e85565b9250611ef760208501611e85565b9150604084013590509250925092565b634e487b7160e01b600052604160045260246000fd5b600067ffffffffffffffff80841115611f3857611f38611f07565b604051601f8501601f19908116603f01168101908282118183101715611f6057611f60611f07565b81604052809350858152868686011115611f7957600080fd5b858560208301376000602087830101525050509392505050565b600082601f830112611fa457600080fd5b61168383833560208501611f1d565b600080600080600060a08688031215611fcb57600080fd5b611fd486611e85565b9450602086013567ffffffffffffffff80821115611ff157600080fd5b611ffd89838a01611f93565b9550604088013591508082111561201357600080fd5b61201f89838a01611f93565b9450606088013591508082111561203557600080fd5b61204189838a01611f93565b9350608088013591508082111561205757600080fd5b5061206488828901611f93565b9150509295509295909350565b60006020828403121561208357600080fd5b61168382611e85565b6000806040838503121561209f57600080fd5b6120a883611e85565b9150602083013580151581146120bd57600080fd5b809150509250929050565b600080600080608085870312156120de57600080fd5b6120e785611e85565b93506120f560208601611e85565b925060408501359150606085013567ffffffffffffffff81111561211857600080fd5b8501601f8101871361212957600080fd5b61213887823560208401611f1d565b91505092959194509250565b6000806040838503121561215757600080fd5b61216083611e85565b915061216e60208401611e85565b90509250929050565b600181811c9082168061218b57607f821691505b602082108114156121ac57634e487b7160e01b600052602260045260246000fd5b50919050565b6020808252602d908201527f4552433732313a2063616c6c6572206973206e6f7420746f6b656e206f776e6560408201526c1c881bdc88185c1c1c9bdd9959609a1b606082015260800190565b634e487b7160e01b600052603260045260246000fd5b60208082526025908201527f4552433732313a207472616e736665722066726f6d20696e636f72726563742060408201526437bbb732b960d91b606082015260800190565b60208082526032908201527f4552433732313a207472616e7366657220746f206e6f6e20455243373231526560408201527131b2b4bb32b91034b6b83632b6b2b73a32b960711b606082015260800190565b600083516122be818460208801611e01565b8351908301906122d2818360208801611e01565b01949350505050565b6001600160a01b038581168252841660208201526040810183905260806060820181905260009061230e90830184611e2d565b9695505050505050565b60006020828403121561232a57600080fd5b815161168381611dce565b60008282101561235557634e487b7160e01b600052601160045260246000fd5b500390565b634e487b7160e01b600052603160045260246000fdfea26469706673582212207e7576c80c75d5d9c976336b0951add9c15fd75799cbb5a4a1a66fd192dff8ca64736f6c63430008090033",
  "linkReferences": {},
  "deployedLinkReferences": {}
}